:100000000C94F5010C941D020C941D020C94390BF8
:100010000C94390B0C94390B0C941D020C941D029A
:100020000C94B10B0C941D020C941D020C941D0237
:100030000C941D020C941D020C941D020C941D02C4
:100040000C94970A0C941D020C94070B0C94E10A73
:100050000C941D020C941D020C941D020C941D02A4
:100060000C941D020C941D0241542B4349465352DB
:100070000041542B4349505345525645523D312C73
:1000800038300041542B4349504D55583D31005BA9
:10009000415649534F5D2046616C6861206E612076
:1000A000636F6E6578616F2E005B57692D46695DE1
:1000B00020417574656E74696361646F20636F6D50
:1000C000207375636573736F21005B57692D4669F3
:1000D0005D20436F6E656374616E646F20616F2095
:1000E000526F746561646F722E2E2E0041542B4343
:1000F000574D4F44453D31005B57692D46695D20A2
:100100004D6F646F2053746174696F6E2E2E2E00D4
:1001100041542B525354005B57692D46695D205260
:1001200065736574616E646F20636F6E6669677571
:100130007261C3A7C3B565732E2E2E004154005BB8
:1001400057692D46695D20496E696369616E646F08
:10015000206D6F64756C6F2E2E2E003D3D3D3D3D34
:100160003D3D3D3D3D3D3D3D3D3D3D3D3D3D3D3DBF
:100170003D3D3D3D3D3D3D3D3D3D3D3D3D3D3D3DAF
:100180003D3D3D3D002020202020202020202D2D01
:1001900020455A6D6172744C6F636B202D2D2020A9
:1001A000202020202020003D3D3D3D3D3D3D3D3D6A
:1001B0003D3D3D3D3D3D3D3D3D3D3D3D3D3D3D3D6F
:1001C0003D3D3D3D3D3D3D3D3D3D3D3D3D3D3D3D5F
:1001D0000017002860095802B0045802580258025B
:1001E000102D000000060026E02070100E022A06E6
:1001F0000E022602806E008007050026E0207010A7
:100200000E022A060E020E02004100000013002614
:10021000801180113002900630023002006E000022
:10022000001E002638081C040E022A060E020E02CA
:1002300000320000001C0026220B220BEE02660892
:10024000EE02EE02806E000000190026F603BC05E7
:100250000802BC050802D401004B0000001B002668
:100260001F015D033E023E021F015D03A06E000000
:100270000004002604010C0304011C0704010C0304
:10028000006E0000000B0025800DC006B0011005B7
:10029000B001B00100820000000700260023801199
:1002A0003002900630023002006E00700754524156
:1002B0004E43414441004445535452414E4341440E
:1002C0004100496E666F726D61C3A7C3B565732047
:1002D000656E76696164617320636F6D2073756309
:1002E0006573736F21005B414C455254415D204161
:1002F00020706F72746120666F69204142455254CC
:100300004120636F6D2061207472616E63612041D2
:1003100054495641444121005B4352C38D544943E3
:100320004F5D20506F727461204F425354525549B3
:10033000444121004E414F0053494D004E414F0072
:1003400053494D00207C204162657274613A20005F
:100350004E414F0053494D00207C20446573747218
:10036000616E636164613A2000636D207C2050728D
:100370006573656E63613A20003E313730005B493A
:100380004E464F5D20446973743A2000000000001F
:10039000240027002A0000000008000201000003DA
:1003A000040700000000000000000000000025001D
:1003B00028002B0000000000230026002900040470
:1003C00004040404040402020202020203030303FD
:1003D00003030102040810204080010204081020D9
:1003E000010204081020E60CE71B11241FBECFEF0A
:1003F000D8E0DEBFCDBF24E0AAE4B2E001C01D9288
:10040000A139B207E1F712E0A0E0B1E0E6E1F0E4E3
:1004100002C005900D92AA34B107D9F711E0C4EFDC
:10042000D1E004C02197FE010E94B61DC33FD10751
:10043000C9F70E94AC0D0C94FE1F0C940000209193
:100440007E0430917F042817390728F480917C04BA
:10045000816080937C0408952091800380917D04C5
:1004600040E0281798F5422F4170309183033111F5
:1004700021C0E22FF0E0E958FC4F838992E3899F85
:10048000F0011124ACEEBFEF442311F0A4E1B0E081
:100490006091840370918503CB01969587958E0FAB
:1004A0009F1F8A0F9B1F0E94A21D772770938203B4
:1004B000609381038091810390918203009771F092
:1004C0003F5F3817190620F430938303842F089573
:1004D000109283032F5F20938003F8CF42E0F6CF82
:1004E000833081F028F4813099F08230A9F00895AA
:1004F0008730A9F08830C9F08430B1F48091800051
:100500008F7D03C0809180008F7780938000089555
:1005100084B58F7784BD089584B58F7DFBCF80919E
:10052000B0008F778093B00008958091B0008F7DE8
:10053000F9CF1F93CF93DF93282F30E0F901EA56CC
:10054000FC4F8491F901EE52FC4FD491F901E25431
:10055000FC4FC491CC23A9F0162F81110E94700288
:10056000EC2FF0E0EE0FFF1FE655FC4FA591B49184
:100570008FB7F894EC91111108C0D095DE23DC936D
:100580008FBFDF91CF911F910895DE2BF8CFCF93CE
:10059000DF9390E0FC01EE52FC4F249182549C4F7B
:1005A000FC0184918823D1F090E0880F991FFC0111
:1005B000E457FC4FA591B491FC01E655FC4FC59161
:1005C000D49161110EC09FB7F8948C91E22FE09501
:1005D0008E238C932881E223E8839FBFDF91CF9104
:1005E00008958FB7F894EC91E22BEC938FBFF6CF80
:1005F0003FB7F8948091A6029091A702A091A8021B
:10060000B091A90226B5A89B05C02F3F19F001960D
:10061000A11DB11D3FBFBA2FA92F982F8827BC015C
:10062000CD01620F711D811D911D42E0660F771F84
:10063000881F991F4A95D1F708958F929F92AF9284
:10064000BF92CF92DF92EF92FF924B015C010E942A
:10065000F8026B017C010E94F8026C197D098E0979
:100660009F09683E734081059105A8F321E0821A35
:100670009108A108B10888EEC80E83E0D81EE11CDD
:10068000F11C81149104A104B10429F7FF90EF90AB
:10069000DF90CF90BF90AF909F908F9008952FB72D
:1006A000F8946091A2027091A3028091A4029091AB
:1006B000A5022FBF08950895EF92FF920F931F9305
:1006C000CF93DF938C017B01D0E0C0E0F701EC0F0A
:1006D000FD1F6491662361F0D801ED91FC910190BA
:1006E000F081E02DC8010995892B11F02196EECFFC
:1006F000CE01DF91CF911F910F91FF90EF90089560
:10070000AF92BF92CF92DF92EF92FF920F931F931F
:10071000CF93DF936C017B018B01040F151FEB015D
:100720005E01AE18BF08C017D10759F06991D60114
:10073000ED91FC910190F081E02DC6010995892B86
:1007400079F7C501DF91CF911F910F91FF90EF9045
:10075000DF90CF90BF90AF900895FC01538D448DF2
:10076000252F30E0842F90E0821B930B541710F05C
:10077000CF96089501970895FC01918D828D981769
:1007800061F0A28DAE0FBF2FB11D5D968C91928D41
:100790009F5F9F73928F90E008958FEF9FEF089572
:1007A000FC01918D828D981731F0828DE80FF11D3B
:1007B000858D90E008958FEF9FEF0895FC01918D56
:1007C000228D892F90E0805C9F4F821B91098F734F
:1007D000992708958AEA92E00E94DE0321E0892B9E
:1007E00009F420E0822F089580E090E0892B29F021
:1007F0000E94EA0381110C9400000895FC01A48D6D
:10080000A80FB92FB11DA35ABF4F2C91848D90E032
:1008100001968F739927848FA689B7892C93A08915
:10082000B1898C91837080648C93938D848D98139F
:1008300006C00288F389E02D80818F7D8083089532
:10084000EF92FF920F931F93CF93DF93EC0181E020
:10085000888F9B8D8C8D98131AC0E889F9898081C7
:1008600085FF15C09FB7F894EE89FF896083E889FA
:10087000F98980818370806480839FBF81E090E0EC
:10088000DF91CF911F910F91FF90EF900895F62E79
:100890000B8D10E00F5F1F4F0F731127E02E8C8D13
:1008A0008E110CC00FB607FCFACFE889F989808158
:1008B00085FFF5CFCE010E94FE03F1CFEB8DEC0F4B
:1008C000FD2FF11DE35AFF4FF0829FB7F8940B8F75
:1008D000EA89FB8980818062CFCFCF93DF93EC01DF
:1008E000888D8823B9F0AA89BB89E889F9898C9118
:1008F00085FD03C0808186FD0DC00FB607FCF7CFD4
:100900008C9185FFF2CF808185FFEDCFCE010E94D3
:10091000FE03E9CFDF91CF91089520918C023091B1
:100920008D022817390771F490918A0280918B0209
:10093000981741F0E0918A02F0E0E65BFD4F80817C
:1009400090E008958FEF9FEF08950F931F930E94FB
:100950004F0360935B0370935C0380935D039093FC
:100960005E0383E593E00E948D0497FF1DC00E9403
:100970004F0300915B0310915C0320915D03309164
:100980005E03601B710B820B930B00915703109158
:1009900058032091590330915A0360177107820759
:1009A0009307F8F28FEF9FEF1F910F91089508952D
:1009B000EF92FF920F931F93CF93DF93DC015C962E
:1009C000ED90FC905D97E114F10479F481E090E002
:1009D00013969C938E93129790E080E0DF91CF91D5
:1009E0001F910F91FF90EF9008955196ED91FC911A
:1009F000529750968C915097982F90950FB75E967E
:100A00002C915E97122F127021FD6095F894208131
:100A1000112319F1282B2083E7012197F1F728E012
:100A2000462F50E0308160FF1AC0382B3083E70139
:100A30002197F1F7BA0175956795215089F7112330
:100A400081F08081892380830FBF5C968D919C917A
:100A50000197F1F781E090E0C1CF2923DCCF392362
:100A6000E5CF9081892BEFCF20918C0230918D02C0
:100A70002817390761F480918B0220918A0290E057
:100A8000805C9F4F821B91098F739927089590E096
:100A900080E0089520918C0230918D02281739074B
:100AA000B9F490918A0280918B02981789F0E091B5
:100AB0008A02F0E0E65BFD4F808120918A0230E0FF
:100AC0002F5F3F4F2F73332720938A0290E00895C2
:100AD0008FEF9FEF08958F929F92AF92BF92CF9228
:100AE000DF92EF92FF920F931F93CF93DF93DC017E
:100AF00012962D913C91EC0101E010E0232B29F599
:100B000090E080E0DF91CF911F910F91FF90EF90E7
:100B1000DF90CF90BF90AF909F908F900895211558
:100B2000310599F0EC80FD80A701415051095D83AA
:100B30004C83FB01E40FF51FE0810E2E000CFF0B30
:100B40008E179F0781F1452B69F70E944F03609331
:100B50005B0370935C0380935D0390935E0383E576
:100B600093E00E944A0597FF40C00E944F03C09047
:100B70005B03D0905C03E0905D03F0905E036C1922
:100B80007D098E099F09C0905703D0905803E090CB
:100B90005903F0905A036C157D058E059F05F8F2F8
:100BA0008FEF9FEFAFCF41155105E1F06B01D901F8
:100BB000A41BB50B4D01860E971EF0E0E0E0D601B8
:100BC000AD906D01D401BD904D01AB1004C03196C4
:100BD000E417F507A0F3E417F50709F0A3CFFD82AA
:100BE000EC82B3CF1D830C83B0CF688179812C81D7
:100BF0003D81FB01E20FF31F4081042E000C550BD9
:100C00004817590709F08BCF2F5F3F4F3D832C8347
:100C10008A819B812817390709F097CF71CF90E01F
:100C200080E008958F929F92AF92BF92CF92DF9211
:100C3000EF92FF924B015C010E94F8026B017C0174
:100C400024E0C21AD108E108F1080E94F8026C19E8
:100C50007D098E099F09681579058A059B05A8F30A
:100C6000FF90EF90DF90CF90BF90AF909F908F90CC
:100C7000089542E3489F9001499F300D11242C5E56
:100C80003F4F7695679576956795CB01880F991FAD
:100C9000860F971F8217930750F485E0869FA00167
:100CA000879F500D112481E04217530708F480E01C
:100CB000089542E3489F9001499F300D112424512B
:100CC00031097695679576956795CB01880F991FC1
:100CD000860F971F8217930750F485E0869FA00127
:100CE000879F500D112481E04217530708F480E0DC
:100CF00008954F925F926F927F929F92AF92BF92B0
:100D0000CF92DF92EF92FF920F931F93CF93DF93D7
:100D1000182F5A01922EC62FD0E0C657DC4F412C17
:100D2000512C32014394C12CD12C76011123F1F0C6
:100D30009920B1F08881B50190E00E945906002306
:100D400069F1CC0CDD1CEE1CFF1C882311F06894AB
:100D5000C0F8440C551C661C771C11502296E6CF37
:100D60008981B50190E00E943906E9CFC0925A040A
:100D7000D0925B04E0925C04F0925D04DF91CF912D
:100D80001F910F91FF90EF90DF90CF90BF90AF90A9
:100D90009F907F906F905F904F9008958823C9F245
:100DA000C428D528E628F728D4CFCF93DF93EC01C9
:100DB000FC0133966591749180918B0390E00E94C1
:100DC0005906882359F0FE013596659174918091FA
:100DD0008C0390E0DF91CF910C94390680E0DF9195
:100DE000CF910895E2E7F3E08AE190E09283818376
:100DF00085E090E09483838361E080810C94C70256
:100E000080918B048F3F11F42D98089560E00C942D
:100E10009902882349F080918B048F3F11F42D9A19
:100E2000089561E00C9499020C9400078F929F92B0
:100E3000AF92BF92CF92DF92EF92FF92CF936C016D
:100E40000E94F8024B015C01F12CE12C88E0C80EF5
:100E5000D11CE11CF11CC80CD91CEA1CFB1CC0E015
:100E6000F89461E0809172030E949902E091750309
:100E7000F0917603E230F10538F0EE0FFF1FEE0F30
:100E8000FF1F35973197F1F760E0809172030E9460
:100E900099027894C11103C081E00E9409078091F2
:100EA000730390917403880E991EA11CB11C0E94BB
:100EB000F8026C157D058E059F0558F0CF91FF90C7
:100EC000EF90DF90CF90BF90AF909F908F900C9459
:100ED0000007C1E0681579058A059B0540F3C0CF7E
:100EE0000E94F20680E093E20E94160760EC78E030
:100EF00080E090E00E94120680E392E00C941607D6
:100F00000E94F20680EE90E20E94160768E378E005
:100F100080E090E00E9412068EE092E00C941607AA
:100F2000FF920F931F93CF93DF93CDB7DEB76497F4
:100F30000FB6F894DEBF0FBECDBF162FF42E44E1DE
:100F400050E0BC01CE0101960E940B1C0889802F45
:100F500080714885598504FD02C04A855B85001F64
:100F60000027001F21E0811101C020E06F2D812F9B
:100F70000E94790664960FB6F894DEBF0FBECDBF0F
:100F8000DF91CF911F910F91FF900895FB01019088
:100F90000020E9F73197AF01461B570BDC01ED91BB
:100FA000FC910280F381E02D09948F929F92AF9281
:100FB000BF92EF92FF920F931F93CF93DF93CDB722
:100FC000DEB7A1970FB6F894DEBF0FBECDBF7C0190
:100FD000FA01CB0119A2223008F42AE08E010F5D3C
:100FE0001F4F822E912CB12CA12CBF01A501940181
:100FF0000E942F1DF901CA016A300CF5605DD8010D
:101000006E938D01232B242B252B79F790E080E024
:10101000109721F0BD01C7010E94C607A1960FB627
:10102000F894DEBF0FBECDBFDF91CF911F910F911E
:10103000FF90EF90BF90AF909F908F900895695C64
:10104000DECFCF92DF92EF92FF920F931F93CF9359
:10105000DF9377FF21C06A017B01EC01E881F98110
:101060000190F081E02D6DE209958C014427552710
:10107000BA014C195D096E097F092AE0CE010E9470
:10108000D507800F911FDF91CF911F910F91FF9096
:10109000EF90DF90CF9008952AE0DF91CF911F91DC
:1010A0000F91FF90EF90DF90CF900C94D5070F93A6
:1010B0001F93CF93DF93EC010E945C038C0161EFDF
:1010C00071E0CE010E94C607800F911FDF91CF9182
:1010D0001F910F910895CF93DF93EC01888199813F
:1010E000009711F00E948E1E198218821D821C82A8
:1010F0001B821A82DF91CF910895FC01808191813A
:10110000009711F00C948E1E08950F931F93CF93A8
:10111000DF93EC0188819981009759F02A813B8106
:101120002617370730F081E0DF91CF911F910F91A3
:1011300008958B016F5F7F4F0E94171F009759F032
:10114000998388831B830A832C813D81232B59F744
:10115000FC011082E8CF80E0E7CFEF92FF920F937F
:101160001F93CF93DF936115710541F480E0DF9108
:10117000CF911F910F91FF90EF9008954115510568
:10118000B1F07B01EC010C811D81040F151FB8012A
:101190000E948508882351F3288139818C819D81A3
:1011A000B701820F931F0E94DD1F1D830C8381E016
:1011B000DECFCF93DF93EC01FB0101900020E9F734
:1011C0003197AF01461B570B0E94AD08811103C038
:1011D000CE010E946B08CE01DF91CF910895CF938D
:1011E000DF93EC01FB0144815581608171810E9494
:1011F000AD08811103C0CE010E946B08CE01DF91C2
:10120000CF910895EF92FF920F931F93CF93DF93A7
:10121000EC017B018A01BA010E94850881110BC093
:10122000CE010E946B08CE01DF91CF911F910F91EB
:10123000FF90EF9008951D830C83B70188819981F9
:101240000E94DD1FF0CFFB0101900020E9F73197EC
:10125000AF01461B570B0C940209FC01118210824E
:1012600013821282158214826115710551F0FB01FF
:1012700001900020E9F73197AF01461B570B0C9402
:10128000020908958F929F92AF92BF92CF92DF9200
:10129000EF92FF920F931F93CF93DF93CDB7DEB7FB
:1012A00062970FB6F894DEBF0FBECDBF7C014B0135
:1012B00083E593E00E943405892B29F083E593E0D0
:1012C0000E944A05F5CFF701448155816081718103
:1012D00083E593E00E94800361EF71E083E593E092
:1012E0000E94C6070E944F03092C000CAA08BB08E5
:1012F000860E971EA81EB91E63EF71E0CE010D96F3
:101300000E942D090E944F03681579058A059B05E7
:1013100008F0DDC083E593E00E943405892B91F34A
:1013200083E593E00E944A05182F682F8AEA92E02D
:101330000E94200419831A8241E050E0BE016F5FD1
:101340007F4FCE010D960E94AD0809891A89093296
:10135000110508F452C06801F4E1CF1AD1080C1548
:101360001D0528F0902F812F8601C92ED82E63EFFE
:1013700071E0CE0101960E942D09E988FA880E15C8
:101380001F05E0F4CE14DF0408F47601ED85FE8538
:10139000EE0DFF1DD08010826D857E85600F711F60
:1013A000CE0101966115710509F47BC00E942309E5
:1013B0008D859E85E80EF91EF701D0828D859E856C
:1013C000009709F473C069817A816115710509F488
:1013D0006BC04F8558892D813E814217530708F411
:1013E00063C00E94DD1F8D819E819A8B898B1E8236
:1013F0001D82CE0101960E947D086EE371E0CE0150
:1014000007960E942D0989899A89892B71F00D858B
:101410001E856F817885C8010E94E41F009729F01E
:10142000801B910B11E00196E9F461E471E0CE01BB
:1014300001960E942D0989899A89892B71F00D8561
:101440001E8569817A81C8010E94E41F009729F0F6
:10145000801B910B11E0019609F410E0CE0101967A
:101460000E947D08CE0107960E947D08112309F491
:1014700051CFCE010D960E947D08812F62960FB646
:10148000F894DEBF0FBECDBFDF91CF911F910F91BA
:10149000FF90EF90DF90CF90BF90AF909F908F9094
:1014A00008950E946B0884CF0E948E1E89819A81C4
:1014B0009E878D878B819C81988B8F878D819E8164
:1014C0009A8B898B1A8219821C821B8290CF10E022
:1014D000D0CFEF92FF920F931F93CF93DF93EC0146
:1014E0008B01198218821B821A821D821C82CB01F9
:1014F0000E941B1C7C01BC01CE010E948508811149
:1015000009C0CE01DF91CF911F910F91FF90EF9015
:101510000C946B08FD82EC82B80188819981DF917F
:10152000CF911F910F91FF90EF900C94141C1F927C
:101530000F920FB60F9211242F933F938F939F9387
:10154000AF93BF938091A2029091A302A091A402B5
:10155000B091A5023091A10223E0230F2D3758F559
:101560000196A11DB11D2093A1028093A202909328
:10157000A302A093A402B093A5028091A602909129
:10158000A702A091A802B091A9020196A11DB11DC8
:101590008093A6029093A702A093A802B093A902F9
:1015A000BF91AF919F918F913F912F910F900FBE5F
:1015B0000F901F90189526E8230F0296A11DB11DCC
:1015C000D2CF1F920F920FB60F9211242F933F93F9
:1015D0004F935F936F937F938F939F93AF93BF933B
:1015E000EF93FF938AEA92E00E94FE03FF91EF914E
:1015F000BF91AF919F918F917F916F915F914F912B
:101600003F912F910F900FBE0F901F9018951F9232
:101610000F920FB60F9211242F938F939F93EF93F6
:10162000FF93E091BA02F091BB028081E091C00289
:10163000F091C10282FD1BC090818091C3028F5F37
:101640008F732091C402821741F0E091C302F0E051
:10165000E655FD4F958F8093C302FF91EF919F91C7
:101660008F912F910F900FBE0F901F901895808132
:10167000F4CF1F920F920FB60F9211242F933F9326
:101680004F935F936F937F938F939F93AF93BF938A
:10169000EF93FF93E0918C02F0918D02309749F027
:1016A000A685B7858585968D91FF14C09C91892369
:1016B000A1F4FF91EF91BF91AF919F918F917F9195
:1016C0006F915F914F913F912F910F900FBE0F90AF
:1016D0001F9018959C91892361F7A389B4899C91E7
:1016E0008589809589238C93868997890197F1F75D
:1016F000608D718DA685B785558538E020E0CB01DA
:101700000197F1F7822F90E095958795282F4C91BE
:10171000452309F02068315091F7868D81FD209591
:1017200080918B0290E001968F73992730918A0205
:10173000381799F0A0918B02B0E0A65BBD4F2C93B7
:1017400080938B02828D938D0197F1F7A389B489E1
:101750008C919589892B8C93ACCF868D8160868FF7
:10176000F1CF1F920F920FB60F9211242F933F9338
:101770004F935F936F937F938F939F93AF93BF9399
:10178000CF93EF93FF93E0917903F0917A03C081B7
:1017900080917B03C82380917C0390917D032091ED
:1017A0007C0330917D032F3F3F4F29F001969093AA
:1017B0007D0380937C0320917703211115C0C11113
:1017C0004BC0813A910558F010928603909389039B
:1017D0008093880381E0809387038093770310923E
:1017E0007D0310927C0338C0213099F4CC23A1F101
:1017F000E09187032E0F20938703F0E0E958FC4F18
:101800008F3F910519F010F08FEF90E0838B82E00D
:10181000E4CF223009F047C0E0918703813A910577
:1018200010F4E73CA0F1E83C18F081E080938603D7
:10183000809188039091890390937F0480937E0424
:10184000E0937D0483E080937703E0917E03F09141
:101850007F03309709F0099580918C04882329F043
:1018600081E0C11180E00E940907FF91EF91CF91C3
:10187000BF91AF919F918F917F916F915F914F91A8
:101880003F912F910F900FBE0F901F901895C1118F
:10189000E3CF91E09E0F90938703F0E0E958FC4F6F
:1018A000838B81E09ACF2330B9F6C111D5CF97CF82
:1018B000CF92DF92EF92FF920F931F93E82FF92FB1
:1018C00005C0015011092109310961F19081962368
:1018D0009417B9F305C0015011092109310911F11B
:1018E000908196239413F7CFC12CD12CE12CF12CAD
:1018F0000AC08FEFC81AD80AE80AF80A0C151D05A5
:101900002E053F0579F080818623841791F36C2D95
:101910007D2D8E2D9F2D1F910F91FF90EF90DF90C9
:10192000CF90089560E070E080E090E01F910F910B
:10193000FF90EF90DF90CF900895DF92EF92FF92AB
:101940000F931F93CF93DF93EC01D62E8A01790179
:10195000F0E090E080E030E0E0E0DE01AE0FB11DAD
:101960002C91FF5F222339F0320F2E9F800D911DA5
:1019700011241C92F0E03323B9F0DE1611F0F2309E
:1019800098F0232F2695820F911D632F70E00E94FF
:10199000A21DDE01A60FB11D3C93D8013C9131116F
:1019A0000FC06C9390E080E0EF5FDE16B0F681E050
:1019B000DF91CF911F910F91FF90EF90DF900895ED
:1019C000D7013C91332369F380E0F2CF1092AD024E
:1019D0001092AC0288EE93E0A0E0B0E08093AE02FB
:1019E0009093AF02A093B002B093B1022EE131E028
:1019F0003093AB022093AA0225EC30E03093B7027B
:101A00002093B60224EC30E03093B9022093B80260
:101A100020EC30E03093BB022093BA0221EC30E09E
:101A20003093BD022093BC0222EC30E03093BF0221
:101A30002093BE0226EC30E03093C1022093C00216
:101A40001092C3021092C4021092C5021092C602F4
:101A50002FEF20938B041092780361E060937B0357
:101A600029E230E030937A03209379035098109262
:101A7000720310925603109255038093570390936C
:101A80005803A0935903B0935A0380E391E09093D5
:101A900054038093530310926A03109269031092C7
:101AA0006C0310926B0310926E0310926D031092F0
:101AB000700310926F03809171038E7F8D7F8093EE
:101AC00071038695817068278BE00E94990261E01E
:101AD0008BE00E94C702EDEDF3E0E491E093630335
:101AE000E9ECF3E0E491F0E0EE0FFF1FE655FC4F68
:101AF00085919491909365038093640360E08AE0FC
:101B00000E94C7028091710381FD04C061E08AE0F8
:101B10000E9499028AE080935F03ECEDF3E0E49188
:101B2000E0936003E8ECF3E0E491F0E0EE0FFF1FD8
:101B3000EC54FC4F859194919093620380936103E0
:101B400063E571E08DE493E00E942D096AE571E0A0
:101B500087E493E00C942D09CF93DF93CDB7DEB7E4
:101B6000C255D1090FB6F894DEBF0FBECDBF789431
:101B700084B5826084BD84B5816084BD85B5826092
:101B800085BD85B5816085BD80916E008160809343
:101B90006E001092810080918100826080938100AC
:101BA00080918100816080938100809180008160BC
:101BB000809380008091B10084608093B100809117
:101BC000B00081608093B00080917A00846080933F
:101BD0007A0080917A00826080937A0080917A0006
:101BE000816080937A0080917A00806880937A0087
:101BF0001092C100E091BA02F091BB0212E0108392
:101C0000E091B602F091B7021082E091B802F09133
:101C1000B9028FEC80831092C202E091BE02F09173
:101C2000BF0286E08083E091BC02F091BD0280811A
:101C300080618083E091BC02F091BD028081886068
:101C40008083E091BC02F091BD0280818068808336
:101C5000E091BC02F091BD0280818F7D808361E0C4
:101C60008DE00E94C70261E088E00E94C70260E048
:101C700089E00E94C70260E087E00E94C70285E019
:101C80008093780380E280937B0389E290E09093D5
:101C90007A0380937903559810928C048FEF809388
:101CA0008B04259A1093B0001093B10084E68093C2
:101CB000B3008093B4001092B20080917703833018
:101CC00011F41092770384E08093700067EA71E06A
:101CD0008AEA92E00E94570865E871E08AEA92E099
:101CE0000E9457086BE571E08AEA92E00E9457086B
:101CF00010926E0310926D0310926C0310926B039E
:101D000010926A03109269038DE991E09093700339
:101D100080936F0390915F03963108F047C02DEBDD
:101D200030E030936A03209369032BE931E030936C
:101D30006C0320936B032CE231E030936E0320930D
:101D40006D032091680084E0983048F031E09E30C7
:101D500008F430E081E001C0880F3A95EAF7822B61
:101D6000809368002DE630E0983050F02BE630E0AC
:101D70009E3030F02CE630E0963110F030E020E07C
:101D80003093670320936603292F30E0983008F0E2
:101D90000CC181E001C0880F9A95EAF7809368032F
:101DA00080916F03909170030197F1F780916D031B
:101DB00090916E03892B49F1E0918C02F0918D0294
:101DC00023E0E335F20709F1309739F0A389B489AC
:101DD0009C918589809589238C93809171038E7F56
:101DE0008093710310928B0210928A0283E593E034
:101DF00090938D0280938C02E0916603F0916703CB
:101E0000808190916803892B80836FE371E08AEA77
:101E100092E00E9457086CE371E0AE014F5F5F4FA4
:101E20007A01CA010E94690A68EE73E0C7010E9444
:101E30004209C7010E947D0867E171E08AEA92E0E9
:101E40000E94570860E171E0C7010E94690A60EDD5
:101E500077E0C7010E944209C7010E947D0860ED3A
:101E600077E080E090E00E941D0368EF70E08AEA6E
:101E700092E00E9457086CEE70E0C7010E94690A68
:101E800068EE73E0C7010E944209C7010E947D0805
:101E90006AEC70E08AEA92E00E94570861E771E01C
:101EA000C7010E942D096DE473E0C7010E94EF088D
:101EB0006CE771E00E94D90867E473E00E94EF08C4
:101EC0006EE771E00E94D9081CAA1BAA1EAA1DAACF
:101ED00018AE1FAA1E0153E3250E311C821593056F
:101EE00069F0DC016D917C9111976115710531F0FC
:101EF00014964D915C91C1010E940209C7010E9494
:101F00007D081A8219821C821B821E821D826BA987
:101F10007CA96115710529F04FA958ADC7010E9430
:101F2000020968E97AE3C7010E944209182FC70134
:101F30000E947D0869EA70E0111102C06FE870E04C
:101F40008AEA92E00E94570863E870E0C7010E94A5
:101F5000690A68EE73E0C7010E944209C7010E9446
:101F60007D0864EF71E080E090E00E941D0361E76E
:101F700070E0C7010E94690A68EE73E0C7010E9421
:101F80004209C7010E947D0864EF71E080E090E0A3
:101F90000E941D0383E593E00E943405892B91F094
:101FA00083E593E00E944A05F5CF9E3040F4285027
:101FB000310981E001C0880F2A95EAF7EFCE2E5053
:101FC0003109F7CF68E670E083E593E00E94570897
:101FD0000E944F034B015C01B0ED8B0EB7E09B1EDE
:101FE000A11CB11C0E944F03681579058A059B0549
:101FF00080F483E593E00E943405892B99F383E50F
:1020000093E00E944A05682F8AEA92E00E94200429
:10201000F0CFC1010E947D080E944F034B015C017B
:1020200080917703833009F002C280918603882370
:1020300009F463C080E480937C04109253041092EE
:1020400052041092570410925604109255041092A4
:10205000540410925A0410925B0410925C04109283
:102060005D0410927B0410927A0480917C0486FDBA
:10207000BEC110917D04812F8F7B843009F0BFC0D9
:1020800080918B0360E073E290E00E945906882300
:1020900009F442C180918C0390E0143009F048C0EB
:1020A00060EC78E00E943906882309F435C18091FC
:1020B0008D0360E372E090E00E945906882309F4E2
:1020C0002BC181E080937C048091820490918304F1
:1020D00090935504809354048091840490918504D6
:1020E00090935704809356048091800490918104CA
:1020F00090935304809352047AC110927C0480918F
:1021000052049091530490938104809380048091B1
:102110005604909157049093850480938404809191
:10212000540490915504909383048093820485CF46
:1021300060E871E10E943906882309F4EDC043E0AC
:1021400060E289E992E00E94900780915A049091A0
:102150005B0440915C0450915D04242F30E0309387
:102160005704209356049C012E3EE7E83E0721F5D4
:1021700083E090E09093530480935204852F90E085
:10218000909355048093540480E290E090937B04F4
:1021900080937A048AE795E00E941F0280917C0474
:1021A00080FF29C128E030E030935304209352048B
:1021B000806280937C041BC19095891310C090E0CD
:1021C0009093550480935404852F809548130CC038
:1021D00087E090E09093530480935204D5CF3093DE
:1021E000550420935404F0CF89E090E09093530479
:1021F000809352044093560450935704C5CF14362D
:1022000009F08AC085E892E00E94D506882309F487
:1022100083C043E060E185E892E00E9490077090FF
:102220005A04072D10915B04BAE0CB2ED12C02305A
:10223000F0E21F07F9F0ADE0CA2ED12C0A3A2AE5E8
:102240001207C1F0FCE0CF2ED12C043532E3130786
:1022500089F0EEE0CE2ED12C033041E0140751F08E
:102260008FE0C82ED12C03325BEC150719F07BE010
:10227000C72ED12C7126872D82958F70782643E248
:1022800060E285E892E00E94900780915A04909164
:102290005B04A0915C04B0915D049C0164E0369500
:1022A00027956A95E1F730935504209354042A2F1B
:1022B00030E03093570420935604282F2A272927EB
:1022C000372D3F70482F4F70341719F034E030939A
:1022D0007C046BE0C616D10449F430917C04306173
:1022E00030937C0410935904009358042B1729F061
:1022F00080917C04846080937C0480E390E09093E0
:102300007B0480937A04D0925304C09252048AE3EF
:1023100097E00E941F026BC080917D04803209F01B
:1023200079C180918B038A3008F074C141E06FE07D
:1023300081E792E00E94900780915A0490915B049B
:10234000A0915C04B0915D049C012F713327309300
:1023500055042093540455E0B695A7959795879515
:102360005A95D1F7392F3370AC0155275093570444
:102370004093560440917E0450917F04453654406A
:1023800008F045C120917C04226020937C042091B8
:102390008A042F5F20938A0420FF19C0213019F08E
:1023A00021E020937C043091840440918504282FFF
:1023B0002095231729F020917C04246020937C042D
:1023C0003093560440935704392F3095337086E18B
:1023D00090E0311102C084E090E090935304809328
:1023E00052048FE090E090937B0480937A04809174
:1023F0007C0480FD16C08091560490915704892B6F
:1024000081F08091990291E089278093990266EB8F
:1024100072E0811102C06DEA72E08AEA92E00E94E5
:10242000570880917703833011F4109277038091DD
:102430008E0290918F02A0919002B0919102A5011D
:102440009401281B390B4A0B5B0BDA01C901803957
:102450009140A105B10508F482C080928E0290924D
:102460008F02A0929002B0929102EDE9F3E0849184
:10247000E9EDF3E01491E5ECF3E00491D12CC12CEB
:10248000002399F081110E947002E02FF0E0EE0F1E
:10249000FF1FEC54FC4FA591B491EC911E2391E0E9
:1024A00080E009F490E0C92ED82E60E088E00E9418
:1024B000990283E090E00197F1F761E088E00E94E3
:1024C000990283E290E00197F1F760E088E00E94D2
:1024D0009902EBEDF3E06491E7ECF3E0E491F0E0D6
:1024E000EE0FFF1FEC54FC4F8591949100E117E231
:1024F00020E030E0462F0E94580C611571058105DF
:10250000910559F06F5F7F4F8F4F9F4F9F706115FF
:1025100071058105910509F014C787EE93E090934A
:102520009C0280939B028C2D817080939A02209153
:102530009B0230919C0281E0243031050CF480E054
:102540008093980280919902CA94CD2829F491E051
:102550008927243031050CF080E0809397020091A8
:102560009902011105C780919802882309F4FEC6DB
:102570008091930290919402A0919502B09196025D
:10258000A5019401281B390B4A0B5B0BDA01C90129
:102590008C329140A105B10588F08092930290920F
:1025A0009402A0929502B09296026091920281E00C
:1025B0006827609392028DE00E94990283E593E080
:1025C0000E943405892B09F496C71E821D8280E87B
:1025D00091E09A83898385E090E09C838B83C70197
:1025E0000E946B05892B09F086C70E94A504FC0197
:1025F00097FD3BC78D32910509F4BCC6C0970A9779
:1026000008F4B8C683E593E00E944A05EECF109225
:102610008A04DDCE81ED91E00E94D50690917D0483
:10262000882309F445C09A3129F09A3219F0903282
:1026300009F03EC0892F90E0BC016150710977FD1F
:10264000BC017595679543E081ED91E00E9490078C
:1026500080915A0490915B04A0915C04B0915D0458
:102660009C012F773327309357042093560447E07B
:10267000B695A795979587954A95D1F79093550468
:102680008093540420917D0430E0C901019797FDA7
:10269000C9019595879590937B0480937A0487E18F
:1026A00090E0909353048093520488E292E031CEFC
:1026B00081E08093800329E733E030938503209302
:1026C0008403109283039E509B3108F0C0C0809118
:1026D0008B038D3208F0BBC00E942C02813009F0C0
:1026E000B6C000E0412C512C320110E090918003E3
:1026F00080917D049817C0F50E942C02D82E0E946C
:102700002C02D1100AC0813091F4440C551C661C77
:10271000771C689440F81F5FE9CF31E0D31207C0FF
:10272000811105C0440C551C661C771CF4CF173072
:1027300009F08DC080918003E82FF0E0E958FC4F4C
:102740009389963340F3909183039E5F9093830324
:1027500020918103309182039217130618F08F5F46
:102760008093800301E0D7CF40925A0450925B04DB
:1027700060925C0470925D049201A6E03695279504
:10278000AA95E1F7812F90E00023D1F10197909372
:102790007B0480937A04C2018F7399279093590424
:1027A000809358042F733327309357042093560493
:1027B000D301C201FCE0B695A79597958795FA9548
:1027C000D1F78F719927909355048093540462FC3C
:1027D00006C0205C3F4F309357042093560480E995
:1027E00080937C0461FE03C088E980937C048DE1C2
:1027F00090E090935304809352048AED98E089CD41
:1028000090937B0480937A04842D8F7390E090934F
:102810005704809356042F71332730935504209327
:102820005404920122273071232B31F4805C9F4F96
:10283000909357048093560480E880937C0453FE61
:1028400003C088E880937C0480E190E0D2CF80913F
:102850007D048A518F3208F0A5C080918B0368E611
:102860007AE090E00E945906882309F49BC0809189
:102870008C0368E773E090E00E943906882309F42E
:1028800091C083E0809380038CEB91E0909385036B
:1028900080938403109283030E942C02813009F0FC
:1028A00081C00E942C0281117DC0412C512C32012B
:1028B00010E09091800380917D04981730F50E947C
:1028C0002C02082F0E942C02133049F408136AC00E
:1028D0000E942C02D82E0E942C02D81263C0013014
:1028E00051F481115FC0440C551C661C771C689420
:1028F00040F81F5FDECF011155C0813009F052C092
:10290000440C551C661C771CF4CF812F90E09093EB
:102910007B0480937A0440925A0450925B04609244
:102920005C0470925D04242D30E0852D90E013321C
:1029300000F540E840937C043093570420935604FC
:10294000909355048093540460FE03C088E88093FC
:102950007C04153128F080917C04806180937C0494
:1029600081E190E0909353048093520483E79AE0CE
:10297000D0CC40E940937C04309357042093560414
:102980009093550480935404C3019F73909359040A
:102990008093580477FE03C088E980937C0482E129
:1029A00090E0E0CF10917D041C3319F0143009F051
:1029B00099C080918B0360EE70E290E00E9459060E
:1029C000882309F48FC01430A1F500918004109180
:1029D00081040630110509F0DBC080918C0368E3A7
:1029E00078E090E00E943906882309F4D1C08091F4
:1029F0008D036EE072E090E00E945906882309F48E
:102A0000C7C081E880937C04809182049091830404
:102A1000909355048093540480918404909185048C
:102A200090935704809356041093530400935204D8
:102A3000DECC80918C0360E770E190E00E94390663
:102A4000882309F44FC043E06CE185EE91E00E94D9
:102A5000900780E880937C0480915A0490915B04F5
:102A6000A0915C04B0915D048C019D0144E0369519
:102A70002795179507954A95D1F7A8011093570404
:102A8000009356048C019D0164E1369527951795B6
:102A900007956A95D1F7109355040093540424E0E8
:102AA00030E060E0742F7F70670F04E05695479523
:102AB0000A95E1F721503109A9F786278F709927E8
:102AC000AA27BB27892B8A2B8B2B19F084E88093AC
:102AD0007C0486E090E090935304809352048CE150
:102AE00090E081CC123271F1143209F051C089EFBB
:102AF00091E00E94D506882309F44AC043E060E1D2
:102B000089EF91E00E94900780915A0490915B04B4
:102B1000A0915C04B0915D04492F5A2F6B2F772749
:102B200050935704409356049927909355048093EB
:102B3000540480E190E090937B0480937A0485E0D4
:102B400090E0D6CA009180041091810405301105EF
:102B500009F04DCC80917E0490917F048C3E9C4581
:102B600008F045CC80918B036EE072E090E00E940B
:102B70005906882309F43BCC8091AB036EE072E0E8
:102B800090E00E945906882309F431CC81E03ACFC5
:102B900080917D04982F9F7D943419F0863009F040
:102BA00083C08DE092E00E94D506882309F47CC0A2
:102BB000809180049091810484319105C1F4209129
:102BC0007D042630A1F421E220937C04209182042C
:102BD000309183043093550420935404209184044D
:102BE00030918504309357042093560481CA43E002
:102BF00060E28DE092E00E94900790915A048091EB
:102C00005B0410915C0440915D049C01309354047A
:102C10002093550420917D04042F0095243639F526
:102C200043E460E18DE092E00E94900780915A04B5
:102C300090915B04101731F09095981719F094E07B
:102C400090937C04982F812F90935704809356047F
:102C500080E390E090937B0480937A0485E190E098
:102C600090935304809352048EEB9AE052CB10134E
:102C700016C0212F30E03093570420935604891357
:102C800005C090E0909355048093540480E290E056
:102C900090937B0480937A0483E190E0E1CF1093DA
:102CA000560440935704EBCF80917D04843269F53C
:102CB00081E292E00E94D506882339F143E060E189
:102CC00081E292E00E94900710915A0480915B0487
:102CD0008095181719F084E080937C048DE692E0CB
:102CE0000E941F02812F90E0909357048093560416
:102CF000109255041092540480E190E090937B046C
:102D000080937A048EE190E0F3C980917D0484344D
:102D1000C1F485E392E00E94D506882391F043E058
:102D200060E285E392E00E94900780E880937C0453
:102D300080E290E090937B0480937A048CE190E0B1
:102D4000D7C980918B0352E3859FC001112483561C
:102D500091098C39910508F067C080918C0362E07D
:102D600074E090E00E943906882309F45DC08091E8
:102D70007D04843209F058C000910F01802F8071CA
:102D8000409107015091080104FD04C040910901E0
:102D900050910A01001F0027001F21E0811101C08E
:102DA00020E063E080E10E94790680E880937C0463
:102DB00040915A0490915B04242F392F592F52953A
:102DC0005F709F70B4E036952795BA95E1F72F7044
:102DD0004F708FE0852789278227481719F084E8EC
:102DE00080937C0480917C0460917E0470917F04C8
:102DF000683F714118F4826080937C0450935404BE
:102E000010925504B0E19B9FC0011124822B909336
:102E100057048093560480E190E090937B04809364
:102E20007A048AE190E064C989E492E00E94D506C0
:102E3000882371F180917D04843251F543E060E193
:102E400089E492E00E9490078091AD0368E072E00F
:102E500090E00E9459068823D9F080915A049091FD
:102E60005B0498279F3FA1F490E0909357048093D0
:102E7000560480E190E090937B0480937A0489E18A
:102E800090E0909353048093520488ED94E041CAFB
:102E900080917D04803709F04FC041E068E08DE506
:102EA00092E00E94900780915A0490915B04A09157
:102EB0005C04B0915D04892B8A2B8B2BE9F541E1F1
:102EC0006FE18DE592E00E94900740905A04509087
:102ED0005B0460905C0470905D044FE461E18DE5FB
:102EE00092E00E94900790915B0480915C04892796
:102EF00098278927909357048093560440925A0448
:102F000050925B0460925C0470925D045092550490
:102F10004092540470925904609258048BE190E0FE
:102F2000909353048093520488E390E090937B0441
:102F300080937A0480E83DC980917D048F7B843042
:102F400009F040C080918B0360E073E290E00E9442
:102F500059068823B9F180918C0360E871E190E013
:102F60000E943906882371F143E060E289E992E02A
:102F70000E94900780915A0490915B0430915C0408
:102F800020915D04909589131DC0922F9095931701
:102F9000C9F04FE150E0509353044093520490E045
:102FA0009093550480935404C901909356048093E0
:102FB000570480E290E090937B0480937A048AE740
:102FC00095E0A7C980917D04823108F465C192E340
:102FD000F70111929A95E9F743E060E08250990B6E
:102FE000242F30E0281739079CF429583C4FD90189
:102FF00053962C91223308F04FC1F701E20FF11DD7
:1030000030813F5F3083621708F4622F4E5FE8CF54
:1030100026961FAE26971FAE9E01215C3F4FAE0144
:103020004B5B5F4FC7010E949D0C882309F434C19C
:1030300082E3F70111928A95E9F740917D044250AD
:10304000550B24E060E0822F90E084179507B4F4DC
:1030500089589C4FDC0153968C91823308F01CC137
:10306000E1E0F0E0EC0FFD1FE80FF11D90819F5FA4
:103070009083681708F4682F2E5FE5CF19AE1BAA5E
:103080009E012D5C3F4FAE01475C5F4FCE01019624
:103090000E949D0C882309F4FFC080917D048695D1
:1030A0001FEF180F6BA8662011F01EEF180F212FCD
:1030B00030E030937B0420937A04C901019797FD97
:1030C0004F96FC01A5E0F595E795AA95E1F7609686
:1030D000FFAFEEAF60972F96FFAD2F976396FFAFD0
:1030E0006397CFACC11003C0662009F4D5C099AD79
:1030F00082E3989F9001112462963FAF2EAF6297B2
:1031000026969FAD2697989F20011124C89E6001A6
:103110001124689E3001112433E02C963FAF2C9788
:103120002E961FAE2E97812F113208F080E29BA9B8
:10313000992309F491C042E050E050935304409326
:10314000520400E020E0A3012C966FAD2C970E9462
:10315000790680915A0490915B04A0915C04B0912F
:103160005D042E963FAD2E9724E0329FF00111248E
:10317000E659FB4F80839183A283B3832C964FAD96
:103180002C97405C2C964FAF2C9710523F5F2E9699
:103190003FAF2E9763965FAD6397531720F620914C
:1031A0007E0430917F04203D374000F56096EEADFF
:1031B000FFAD6097EE0FFF1FEE0FFF1FE659FB4FAD
:1031C00000811181228133814091860450918704CE
:1031D0006091880470918904041715072607370742
:1031E00029F420917C04216020937C048093860440
:1031F00090938704A0938804B093890420918B0353
:1032000092E3299F9001112430935F0420935E0480
:1032100080918C03899FC001112490936104809355
:103220006004509267044092660462968EAD9FAD32
:1032300062979093690480936804C114D10419F1D2
:103240006114710499F4D0926304C0926204909363
:10325000650480936404CBC8A1E0B0E0B09353044C
:10326000A093520400E021E0A6016ECF70926504A5
:10327000609264045092630440926204D0926704A6
:10328000C0926604B4C85092630440926204709283
:10329000650460926404ABC8E0917D04E63008F4F4
:1032A000A6C811E025EC3DE94CE151E8F0E00AE068
:1032B000612F70E0CB0102968E179F077CF589582D
:1032C0009C4FDC0153968C9169587C4FDB015396DF
:1032D0006C91809F6001112498E0699FD0011124B6
:1032E000CA16DB06C8F0609FB0011124A8E08A9FCF
:1032F000C0011124DD24D3946817790710F462E02B
:10330000D62E63E971E080E091E00E941F1D9B01D1
:10331000AC012D251F5FCCCFD12CF3CF20935A04C5
:1033200030935B0440935C0450935D0480E290E032
:1033300090937B0480937A04109253041092520469
:1033400056C80E94261C26E933E44BE05DE30E9448
:10335000611C20E030E040E05FE30E94611C0E94BD
:10336000BC1D70939C0260939B02DDC861E023C981
:1033700060E021C9412C512C320110E0E130F1050F
:10338000D9F0ED32F10509F46EC0CF01C0970A976C
:1033900098F4AAE0B0E0A30192010E94511D2F0110
:1033A000FF0F66087708460E571E681E791E40E319
:1033B000441A51086108710883E593E00E944A05A8
:1033C0000E94A504FC01C0970A97C0F2E130F10504
:1033D000A9F2112341F07094609450944094411CE0
:1033E000511C611C711C2D965FAE4EAE2D9763EF84
:1033F00071E0CE018B5B9F4F0E942D090E944F030D
:103400002B013C0154E6450E511C611C711C0E94AD
:103410004F03641575058605970558F583E593E018
:103420000E943405892B99F383E593E00E944A05B5
:103430002B962EAD3FAD2B972431310550F4898367
:103440001A8241E050E0B701CE018B5B9F4F0E9492
:10345000AD080E944F032B013C01AAE04A0E511C0B
:10346000611C711CDBCF11E0A7CF412C512C320124
:10347000BACF66E871E0C7010E942D092B968EAD88
:103480009FAD2B97892B71F027966EAC7FAC279759
:1034900069817A81C3010E94E41F6C01C618D708B4
:1034A000892B19F4CC24CA94DC2CC7010E947D0816
:1034B0002D96EEADFFAD2D972F01FF0F6608770813
:1034C000CD20C09409F4A4C06EE871E083E593E0D8
:1034D0000E94C607B301A20183E593E00E94210880
:1034E00061EF71E083E593E00E94C607CE018B5B3C
:1034F0009F4F0E947D0880919D0290919E02A09115
:103500009F02B091A002A5019401281B390B4A0B20
:103510005B0BDA01C9018C3D9540A105B10508F4AA
:1035200067C080929D0290929E02A0929F02B092EC
:10353000A0026EE773E08AEA92E00E945C03409189
:103540009B0250919C02473E63E0560709F036C14A
:1035500069E773E08AEA92E00E945C0369E673E03F
:103560008AEA92E00E945C0380919A0264E573E02B
:10357000811102C060E573E08AEA92E00E945C0378
:1035800068E573E08AEA92E00E945C038091990208
:1035900060E473E0811102C06CE373E08AEA92E0B8
:1035A0000E945C0364E473E08AEA92E00E945C0398
:1035B0008091980268E373E0811102C064E373E0D4
:1035C0008AEA92E00E9457088091970268E173E0CE
:1035D00081110AC080919802882351F0809199024C
:1035E000811106C066EE72E08AEA92E00E945708F6
:1035F00080E090E0892B11F40C940C100E94EA03F7
:10360000882311F40C940C100E9400000C940C10F0
:103610006BE971E0CE01CF960E942D09809197024F
:1036200063EA71E0811106C080919802882331F02D
:103630006DEA71E0CE01CF960E94230965E671E044
:10364000011102C068E671E0CE01C9960E942D0901
:1036500064EB71E0C1010E942D094BE150E064EF81
:1036600071E0C1010E94AD0860E172E0C7010E94F3
:103670002D09BE01615C7F4FC7010E94EF086CE11C
:1036800072E00E94D908DC0114964D915C91159767
:103690006D917C91C1010E94AD08C7010E947D0817
:1036A00062E272E0C7010E942D09BE01675C7F4F94
:1036B000C7010E94EF086CE172E00E94D908FC018A
:1036C0004481558160817181C1010E94AD08C701AB
:1036D0000E947D084EE050E06FE272E0C1010E945E
:1036E000AD0883E593E00E943405892B29F083E53A
:1036F00093E00E944A05F5CF6EE372E083E593E024
:103700000E94C607B301A20183E593E00E9421084D
:1037100064E871E083E593E00E94C6074FA958ADC5
:1037200070E060E02AE083E593E00E94D50761EF56
:1037300071E083E593E00E94C6071E821D8280E24D
:1037400092E09A83898321E030E03C832B83C70198
:103750000E946B05892B71F44FA958AD6BA97CA908
:1037600083E593E00E94800362EC72E08AEA92E0D3
:103770000E94570866E970E080E090E00E941D0317
:103780006EE871E083E593E00E94C607B301A201F1
:1037900083E593E00E94210861EF71E083E593E007
:1037A0000E94C607C1010E947D08CE01C9960E94F1
:1037B0007D08CE01CF960E947D0898CE052E000C84
:1037C000660B770B8AEA92E00E942108C7CE87E455
:1037D00093E00E947D088DE493E00E947D0880E3E1
:1037E00091E0909354038093530380918C029091C5
:1037F0008D028355934071F4E0916603F091670365
:1038000090818091680380958923808310928D0236
:1038100010928C020895FB01DC0102C005900D920C
:1038200041505040D8F70895FB01DC0105900D92FE
:103830000020E1F70895FC0105900020E9F780954C
:1038400090958E0F9F1F0895E89409C097FB3EF452
:1038500090958095709561957F4F8F4F9F4F9923DD
:10386000A9F0F92F96E9BB279395F695879577955B
:103870006795B795F111F8CFFAF4BB0F11F460FF1B
:103880001BC06F5F7F4F8F4F9F4F16C0882311F073
:1038900096E911C0772321F09EE8872F762F05C087
:1038A000662371F096E8862F70E060E02AF09A9522
:1038B000660F771F881FDAF7880F9695879597F917
:1038C00008950E94741C0C94E51C0E94D71C38F0CB
:1038D0000E94DE1C20F0952311F00C94CE1C0C9459
:1038E000D41C11240C94191D0E94F61C70F3959F92
:1038F000C1F3950F50E0551F629FF001729FBB27E7
:10390000F00DB11D639FAA27F00DB11DAA1F649F82
:103910006627B00DA11D661F829F2227B00DA11D35
:10392000621F739FB00DA11D621F839FA00D611DBB
:10393000221F749F3327A00D611D231F849F600DDC
:10394000211D822F762F6A2F11249F5750409AF005
:10395000F1F088234AF0EE0FFF1FBB1F661F771F91
:10396000881F91505040A9F79E3F510580F00C945C
:10397000CE1C0C94191D5F3FE4F3983ED4F386955A
:1039800077956795B795F795E7959F5FC1F7FE2BFC
:10399000880F911D9695879597F9089597F99F67D8
:1039A00080E870E060E008959FEF80EC08950024C7
:1039B0000A941616170618060906089500240A9494
:1039C00012161306140605060895092E0394000C1A
:1039D00011F4882352F0BB0F40F4BF2B11F460FFA9
:1039E00004C06F5F7F4F8F4F9F4F089557FD9058D2
:1039F000440F551F59F05F3F71F04795880F97FBB3
:103A0000991F61F09F3F79F087950895121613066C
:103A10001406551FF2CF4695F1DF08C0161617069B
:103A20001806991FF1CF86957105610508940895D0
:103A3000E894BB2766277727CB0197F90895DB0128
:103A40008F939F930E94511DBF91AF91A29F800DB4
:103A5000911DA39F900DB29F900D11240895A1E296
:103A60001A2EAA1BBB1BFD010DC0AA1FBB1FEE1FF8
:103A7000FF1FA217B307E407F50720F0A21BB30B43
:103A8000E40BF50B661F771F881F991F1A9469F7BF
:103A900060957095809590959B01AC01BD01CF011B
:103AA00008950E94931DA59F900DB49F900DA49F13
:103AB000800D911D112408952F923F924F925F9295
:103AC0006F927F928F929F92AF92BF92CF92DF922E
:103AD000EF92FF920F931F93CF93DF93CDB7DEB793
:103AE000CA1BDB0B0FB6F894DEBF0FBECDBF099427
:103AF0002A88398848885F846E847D848C849B847E
:103B0000AA84B984C884DF80EE80FD800C811B818B
:103B1000AA81B981CE0FD11D0FB6F894DEBF0FBEBA
:103B2000CDBFED010895A29FB001B39FC001A39F37
:103B3000700D811D1124911DB29F700D811D1124E6
:103B4000911D0895AA1BBB1B51E107C0AA1FBB1FF3
:103B5000A617B70710F0A61BB70B881F991F5A9519
:103B6000A9F780959095BC01CD010895EE0FFF1F38
:103B70000590F491E02D09940E94C31D6894B11141
:103B80000C94191D08950E94FE1C88F09F5798F010
:103B9000B92F9927B751B0F0E1F0660F771F881F52
:103BA000991F1AF0BA95C9F714C0B13091F00E946C
:103BB000181DB1E008950C94181D672F782F8827E1
:103BC000B85F39F0B93FCCF3869577956795B39593
:103BD000D9F73EF490958095709561957F4F8F4F02
:103BE0009F4F08950F931F93CF93DF9382309105DA
:103BF00010F482E090E0E0918F04F091900430E0C6
:103C000020E0B0E0A0E0309799F42115310509F4E7
:103C10004AC0281B390B24303105D8F58A819B8195
:103C20006115710589F1FB0193838283FE0111C047
:103C3000408151810281138148175907E0F04817EC
:103C4000590799F4109761F012960C9312971396F6
:103C50001C933296CF01DF91CF911F910F91089560
:103C600000938F0410939004F4CF2115310551F087
:103C70004217530738F0A901DB019A01BD01DF01AA
:103C8000F801C1CFEF01F9CF9093900480938F0496
:103C9000CDCFFE01E20FF31F8193919322503109A2
:103CA00039832883D7CF20918D0430918E04232B24
:103CB00041F4209116013091170130938E04209326
:103CC0008D0420911401309115012115310541F425
:103CD0002DB73EB74091180150911901241B350BA7
:103CE000E0918D04F0918E04E217F307A0F42E1BEF
:103CF0003F0B2817390778F0AC014E5F5F4F241750
:103D0000350748F04E0F5F1F50938E0440938D048B
:103D1000819391939FCFF0E0E0E09CCFCF93DF932E
:103D20000097E9F0FC01329713821282A0918F0470
:103D3000B0919004ED0130E020E01097A1F42081D3
:103D40003181820F931F20918D0430918E042817AA
:103D5000390709F061C0F0938E04E0938D04DF9180
:103D6000CF910895EA01CE17DF07E8F54A815B811C
:103D70009E0141155105B1F7E901FB83EA834991A1
:103D80005991C40FD51FEC17FD0761F48081918113
:103D90000296840F951FE90199838883828193811C
:103DA0009B838A83F0E0E0E012968D919C911397BB
:103DB0000097B9F52D913C911197CD010296820F94
:103DC000931F20918D0430918E042817390739F6FE
:103DD000309751F51092900410928F04B0938E0496
:103DE000A0938D04BCCFD383C28340815181840FC3
:103DF000951FC817D90761F44E5F5F4F888199817D
:103E0000480F591F518340838A819B81938382830A
:103E10002115310509F0B0CFF0939004E0938F04A1
:103E20009ECFFD01DC01C0CF13821282D7CFB0E05C
:103E3000A0E0EDE1FFE10C945E1D8C01009751F4D0
:103E4000CB010E94F21D8C01C801CDB7DEB7E0E1C5
:103E50000C947A1DFC01E60FF71F9C0122503109DA
:103E6000E217F30708F49DC0D901CD91DC911197B9
:103E7000C617D70798F0C530D10530F3CE010497A7
:103E80008617970708F3C61BD70B2297C193D193C8
:103E90006D937C93CF010E948E1ED6CF5B01AC1A2E
:103EA000BD0A4C018C0E9D1EA0918F04B091900410
:103EB000512C412CF12CE12C109731F580918D047F
:103EC00090918E048815990509F05CC04616570636
:103ED00008F058C08091140190911501009741F4A9
:103EE0008DB79EB74091180150911901841B950B15
:103EF000E817F90708F055C0F0938E04E0938D049D
:103F0000F90171836083A0CF8D919C9111971296D6
:103F10006C90129713967C901397A815B90559F5D4
:103F20006C0142E0C40ED11CCA14DB0420F1AC01C8
:103F30004A195B09DA011296159780F06282738242
:103F400051834083D9016D937C93E114F10471F0A6
:103F5000D7011396FC93EE93129776CF22968C0F8F
:103F60009D1FF90191838083F301EFCFF0939004BB
:103F7000E0938F0469CF4816590608F42C017D019F
:103F8000D3019ACFCB010E94F21D7C01009749F02A
:103F9000AE01B8010E94D41FC8010E948E1E870185
:103FA00053CF10E000E050CFFB01DC0102C00190D4
:103FB0000D9241505040D8F70895FB01DC0101906B
:103FC0000D920020E1F70895FB0151915523A9F0CE
:103FD000BF01DC014D9145174111E1F759F4CD01C5
:103FE0000190002049F04D9140154111C9F3FB01AA
:103FF0004111EFCF81E090E00197089511E0C4EF07
:10400000D1E004C0FE010E94B61D2196C53FD10734
:06401000C9F7F894FFCF90
:104016001A00269E0002049E0029029E0007010047
:104026006E000000000091048000000000002004E3
:104036008003AD036D04DE03BC03D0030000000063
:10404600D80480030F06D70434054A058D044F4B68
:1040560000414C524541445920434F4E4E4543542E
:10406600454400546F72726573004D66746C353545
:1040760032393132004445535452414E4341444152
:104086000041542B43574A41503D2200222C220026
:104096002B4950442C0066617669636F6E0041546B
:1040A6002B434950434C4F53453D004645434841F9
:1040B6004441004F42535452554944410041424500
:1040C60052544100485454502F312E312032303052
:1040D600204F4B0D0A436F6E74656E742D547970C4
:1040E600653A20746578742F68746D6C0D0A436F99
:1040F6006E6E656374696F6E3A20636C6F73650DDF
:104106000A0D0A003C21444F435459504520687417
:104116006D6C3E3C68746D6C3E3C626F64793E002B
:104126003C68313E506F7274613A20003C2F683112
:104136003E003C68313E5472616E63613A20003C39
:104146002F626F64793E3C2F68746D6C3E0041545B
:0A4156002B43495053454E443D00F1
:00000001FF
